{
  "contractName": "Hi",
  "abi": [
    {
      "inputs": [],
      "name": "test",
      "outputs": [
        {
          "internalType": "bool",
          "name": "",
          "type": "bool"
        }
      ],
      "stateMutability": "pure",
      "type": "function"
    },
    {
      "inputs": [
        {
          "internalType": "uint256",
          "name": "num",
          "type": "uint256"
        }
      ],
      "name": "addNumber",
      "outputs": [
        {
          "internalType": "uint256",
          "name": "",
          "type": "uint256"
        }
      ],
      "stateMutability": "payable",
      "type": "function"
    },
    {
      "inputs": [
        {
          "internalType": "uint256",
          "name": "num",
          "type": "uint256"
        }
      ],
      "name": "changeNum",
      "outputs": [
        {
          "internalType": "uint256",
          "name": "",
          "type": "uint256"
        }
      ],
      "stateMutability": "payable",
      "type": "function"
    },
    {
      "inputs": [],
      "name": "getNum",
      "outputs": [
        {
          "internalType": "uint256",
          "name": "",
          "type": "uint256"
        }
      ],
      "stateMutability": "payable",
      "type": "function"
    }
  ],
  "bytecode": "0x60806040526000600855600a60095534801561001a57600080fd5b506101a48061002a6000396000f3fe60806040526004361061003f5760003560e01c80632b3113371461004457806367e0badb14610086578063f8a8fd6d146100a4578063fce68023146100d3575b600080fd5b6100706004803603602081101561005a57600080fd5b8101908080359060200190929190505050610115565b6040518082815260200191505060405180910390f35b61008e610128565b6040518082815260200191505060405180910390f35b3480156100b057600080fd5b506100b9610132565b604051808215151515815260200191505060405180910390f35b6100ff600480360360208110156100e957600080fd5b810190808035906020019092919050505061013b565b6040518082815260200191505060405180910390f35b6000816009819055506009549050919050565b6000600954905090565b60006001905090565b60008160006008546008811061014d57fe5b0181905550600860008154809291906001019190505550600854905091905056fea26469706673582212206964a1a0e34ca01ce53b287beef3c5aba97aafc007dc0c3e2ad20b7aa9a01cf064736f6c63430006060033",
  "immutableReferences": {},
  "source": "// SPDX-License-Identifier: MIT\npragma solidity >=0.4.22 <0.9.0;\n\ncontract Hi {\n\n  function test() public pure returns(bool) {\n    return true;\n  }\n  \n\n  //uint[] myNumbers;\n  uint[8] myNumbers;\n  uint count = 0;\n\n  function addNumber(uint num) public payable returns(uint) {\n\n    //myNumbers.push(num);\n    myNumbers[count] = num;\n    count++;\n\n    return count;\n  }\n\n  uint myNum = 10;\n  function changeNum(uint num) public payable returns(uint) {\n    myNum = num;\n    return myNum;\n  }\n\n  function getNum() public payable returns(uint) {\n    return myNum;\n  }\n\n}\n",
  "sourcePath": "/Users/manwelbugeja/School/ict3009/assignments/ict3009-assignment-1/src/helloworld/contracts/Hi.sol",
  "compiler": {
    "name": "solc",
    "version": "0.6.6+commit.6c089d02.Emscripten.clang"
  },
  "schemaVersion": "3.3.4",
  "updatedAt": "2021-03-04T16:53:17.518Z",
  "devdoc": {
    "methods": {}
  },
  "userdoc": {
    "methods": {}
  }
}