{
  "contractName": "MyContract",
  "abi": [
    {
      "inputs": [],
      "name": "test",
      "outputs": [
        {
          "internalType": "bool",
          "name": "",
          "type": "bool"
        }
      ],
      "stateMutability": "pure",
      "type": "function"
    },
    {
      "inputs": [
        {
          "internalType": "uint256",
          "name": "amount",
          "type": "uint256"
        },
        {
          "internalType": "uint256",
          "name": "expiryDate",
          "type": "uint256"
        },
        {
          "internalType": "uint256",
          "name": "interest",
          "type": "uint256"
        }
      ],
      "name": "submitLoanRequest",
      "outputs": [
        {
          "internalType": "uint256",
          "name": "",
          "type": "uint256"
        }
      ],
      "stateMutability": "payable",
      "type": "function"
    }
  ],
  "bytecode": "0x6080604052600060015534801561001557600080fd5b506102a2806100256000396000f3fe6080604052600436106100295760003560e01c80633d32dd241461002e578063f8a8fd6d14610084575b600080fd5b61006e6004803603606081101561004457600080fd5b810190808035906020019092919080359060200190929190803590602001909291905050506100b3565b6040518082815260200191505060405180910390f35b34801561009057600080fd5b50610099610263565b604051808215151515815260200191505060405180910390f35b6000806040518060c001604052803373ffffffffffffffffffffffffffffffffffffffff168152602001600073ffffffffffffffffffffffffffffffffffffffff168152602001600073ffffffffffffffffffffffffffffffffffffffff16815260200186815260200185815260200184815250908060018154018082558091505060019003906000526020600020906006020160009091909190915060008201518160000160006101000a81548173ffffffffffffffffffffffffffffffffffffffff021916908373ffffffffffffffffffffffffffffffffffffffff16021790555060208201518160010160006101000a81548173ffffffffffffffffffffffffffffffffffffffff021916908373ffffffffffffffffffffffffffffffffffffffff16021790555060408201518160020160006101000a81548173ffffffffffffffffffffffffffffffffffffffff021916908373ffffffffffffffffffffffffffffffffffffffff160217905550606082015181600301556080820151816004015560a08201518160050155505060016000815480929190600101919050555060015490509392505050565b6000600190509056fea264697066735822122012a97c1929fd2288290475aee255d25c3bfa44737d441ad3f77e175f9c7b701264736f6c63430006060033",
  "immutableReferences": {},
  "source": "// SPDX-License-Identifier: MIT\npragma solidity ^0.6.6;\n\n\ncontract MyContract {\n\n  function test() public pure returns(bool) {\n    return true;\n  }\n\n  struct LoanRequest{\n    address borrower;\n    address guarantor;\n    address loaner;\n    uint amount;\n    uint expiryDate;\n    uint interestPaid;\n  }\n  \n  LoanRequest[] loan_requests;\n  uint loanRequestCount = 0;\n\n\n\n  function submitLoanRequest(uint amount, uint expiryDate, uint interest) public payable returns(uint) {\n\n    loan_requests.push(LoanRequest(msg.sender,\n                                   address(0),\n                                   address(0),\n                                   amount, \n                                   expiryDate, \n                                   interest));\n\n    loanRequestCount++;\n    return loanRequestCount;\n  }\n\n  //function getLoanRequest(uint index)\n\n}\n",
  "sourcePath": "/Users/manwelbugeja/School/ict3009/assignments/ict3009-assignment-1/src/myproject/contracts/MyContract.sol",
  "compiler": {
    "name": "solc",
    "version": "0.6.6+commit.6c089d02.Emscripten.clang"
  },
  "schemaVersion": "3.3.4",
  "updatedAt": "2021-02-28T15:26:40.483Z",
  "devdoc": {
    "methods": {}
  },
  "userdoc": {
    "methods": {}
  }
}