{
  "contractName": "MyContract",
  "abi": [
    {
      "inputs": [],
      "name": "test",
      "outputs": [
        {
          "internalType": "bool",
          "name": "",
          "type": "bool"
        }
      ],
      "stateMutability": "pure",
      "type": "function",
      "constant": true
    },
    {
      "inputs": [],
      "name": "getLoanRequestCount",
      "outputs": [
        {
          "internalType": "uint256",
          "name": "",
          "type": "uint256"
        }
      ],
      "stateMutability": "view",
      "type": "function",
      "constant": true
    },
    {
      "inputs": [
        {
          "internalType": "uint256",
          "name": "index",
          "type": "uint256"
        }
      ],
      "name": "getLoanRequest",
      "outputs": [
        {
          "internalType": "address",
          "name": "",
          "type": "address"
        },
        {
          "internalType": "uint256",
          "name": "",
          "type": "uint256"
        },
        {
          "internalType": "uint256",
          "name": "",
          "type": "uint256"
        },
        {
          "internalType": "uint256",
          "name": "",
          "type": "uint256"
        },
        {
          "internalType": "address",
          "name": "",
          "type": "address"
        },
        {
          "internalType": "uint256",
          "name": "",
          "type": "uint256"
        },
        {
          "internalType": "address",
          "name": "",
          "type": "address"
        }
      ],
      "stateMutability": "view",
      "type": "function",
      "constant": true
    },
    {
      "inputs": [
        {
          "internalType": "uint256",
          "name": "index",
          "type": "uint256"
        }
      ],
      "name": "getLoanRequestTimestamp",
      "outputs": [
        {
          "internalType": "uint256",
          "name": "",
          "type": "uint256"
        }
      ],
      "stateMutability": "view",
      "type": "function",
      "constant": true
    },
    {
      "inputs": [
        {
          "internalType": "uint256",
          "name": "index",
          "type": "uint256"
        }
      ],
      "name": "isPending",
      "outputs": [
        {
          "internalType": "bool",
          "name": "",
          "type": "bool"
        }
      ],
      "stateMutability": "view",
      "type": "function",
      "constant": true
    },
    {
      "inputs": [
        {
          "internalType": "uint256",
          "name": "index",
          "type": "uint256"
        }
      ],
      "name": "isGuaranteed",
      "outputs": [
        {
          "internalType": "bool",
          "name": "",
          "type": "bool"
        }
      ],
      "stateMutability": "view",
      "type": "function",
      "constant": true
    },
    {
      "inputs": [
        {
          "internalType": "uint256",
          "name": "index",
          "type": "uint256"
        }
      ],
      "name": "isLoaned",
      "outputs": [
        {
          "internalType": "bool",
          "name": "",
          "type": "bool"
        }
      ],
      "stateMutability": "view",
      "type": "function",
      "constant": true
    },
    {
      "inputs": [
        {
          "internalType": "uint256",
          "name": "index",
          "type": "uint256"
        }
      ],
      "name": "isPaid",
      "outputs": [
        {
          "internalType": "bool",
          "name": "",
          "type": "bool"
        }
      ],
      "stateMutability": "view",
      "type": "function",
      "constant": true
    },
    {
      "inputs": [
        {
          "internalType": "uint256",
          "name": "index",
          "type": "uint256"
        }
      ],
      "name": "isTerminated",
      "outputs": [
        {
          "internalType": "bool",
          "name": "",
          "type": "bool"
        }
      ],
      "stateMutability": "view",
      "type": "function",
      "constant": true
    },
    {
      "inputs": [
        {
          "internalType": "uint256",
          "name": "amount",
          "type": "uint256"
        },
        {
          "internalType": "uint256",
          "name": "expiryTime",
          "type": "uint256"
        },
        {
          "internalType": "uint256",
          "name": "interestPaid",
          "type": "uint256"
        }
      ],
      "name": "submitLoanRequest",
      "outputs": [
        {
          "internalType": "uint256",
          "name": "",
          "type": "uint256"
        }
      ],
      "stateMutability": "nonpayable",
      "type": "function"
    },
    {
      "inputs": [
        {
          "internalType": "uint256",
          "name": "index",
          "type": "uint256"
        }
      ],
      "name": "acceptGuarantee",
      "outputs": [],
      "stateMutability": "nonpayable",
      "type": "function"
    },
    {
      "inputs": [
        {
          "internalType": "uint256",
          "name": "index",
          "type": "uint256"
        }
      ],
      "name": "declineGuarantee",
      "outputs": [],
      "stateMutability": "nonpayable",
      "type": "function"
    },
    {
      "inputs": [
        {
          "internalType": "uint256",
          "name": "index",
          "type": "uint256"
        }
      ],
      "name": "payLoan",
      "outputs": [],
      "stateMutability": "payable",
      "type": "function",
      "payable": true
    },
    {
      "inputs": [
        {
          "internalType": "uint256",
          "name": "index",
          "type": "uint256"
        },
        {
          "internalType": "uint256",
          "name": "interest",
          "type": "uint256"
        }
      ],
      "name": "guaranteeLoan",
      "outputs": [
        {
          "internalType": "uint256",
          "name": "",
          "type": "uint256"
        }
      ],
      "stateMutability": "payable",
      "type": "function",
      "payable": true
    },
    {
      "inputs": [
        {
          "internalType": "uint256",
          "name": "index",
          "type": "uint256"
        }
      ],
      "name": "provideLoan",
      "outputs": [],
      "stateMutability": "payable",
      "type": "function",
      "payable": true
    },
    {
      "inputs": [
        {
          "internalType": "uint256",
          "name": "index",
          "type": "uint256"
        }
      ],
      "name": "getGuarantee",
      "outputs": [],
      "stateMutability": "nonpayable",
      "type": "function"
    }
  ],
  "bytecode": "0x608060405234801561001057600080fd5b50611dc8806100206000396000f3fe6080604052600436106100f35760003560e01c8063aa8ae28b1161008a578063cde35e6d11610059578063cde35e6d146104fa578063d1da16241461054d578063dff2b45e1461057b578063f8a8fd6d146105ca576100f3565b8063aa8ae28b146103c6578063ad36d6cc14610401578063ca8836d214610454578063cd392a83146104a7576100f3565b80634b82812e116100c65780634b82812e146102f75780638c84aa941461033257806394b4317d1461035d578063a8d7b3ec14610398576100f3565b806302e62b40146100f85780631b3b8671146101445780632bb9ae91146102415780633d32dd2414610294575b600080fd5b61012e6004803603604081101561010e57600080fd5b8101908080359060200190929190803590602001909291905050506105f9565b6040518082815260200191505060405180910390f35b34801561015057600080fd5b5061017d6004803603602081101561016757600080fd5b8101908080359060200190929190505050610881565b604051808873ffffffffffffffffffffffffffffffffffffffff1673ffffffffffffffffffffffffffffffffffffffff1681526020018781526020018681526020018581526020018473ffffffffffffffffffffffffffffffffffffffff1673ffffffffffffffffffffffffffffffffffffffff1681526020018381526020018273ffffffffffffffffffffffffffffffffffffffff1673ffffffffffffffffffffffffffffffffffffffff16815260200197505050505050505060405180910390f35b34801561024d57600080fd5b5061027a6004803603602081101561026457600080fd5b81019080803590602001909291905050506109e6565b604051808215151515815260200191505060405180910390f35b3480156102a057600080fd5b506102e1600480360360608110156102b757600080fd5b81019080803590602001909291908035906020019092919080359060200190929190505050610a34565b6040518082815260200191505060405180910390f35b34801561030357600080fd5b506103306004803603602081101561031a57600080fd5b8101908080359060200190929190505050610c33565b005b34801561033e57600080fd5b50610347610eaf565b6040518082815260200191505060405180910390f35b34801561036957600080fd5b506103966004803603602081101561038057600080fd5b8101908080359060200190929190505050610ebb565b005b6103c4600480360360208110156103ae57600080fd5b81019080803590602001909291905050506111b7565b005b3480156103d257600080fd5b506103ff600480360360208110156103e957600080fd5b8101908080359060200190929190505050611611565b005b34801561040d57600080fd5b5061043a6004803603602081101561042457600080fd5b8101908080359060200190929190505050611967565b604051808215151515815260200191505060405180910390f35b34801561046057600080fd5b5061048d6004803603602081101561047757600080fd5b81019080803590602001909291905050506119b4565b604051808215151515815260200191505060405180910390f35b3480156104b357600080fd5b506104e0600480360360208110156104ca57600080fd5b8101908080359060200190929190505050611a02565b604051808215151515815260200191505060405180910390f35b34801561050657600080fd5b506105336004803603602081101561051d57600080fd5b8101908080359060200190929190505050611a50565b604051808215151515815260200191505060405180910390f35b6105796004803603602081101561056357600080fd5b8101908080359060200190929190505050611a9e565b005b34801561058757600080fd5b506105b46004803603602081101561059e57600080fd5b8101908080359060200190929190505050611d2c565b6040518082815260200191505060405180910390f35b3480156105d657600080fd5b506105df611d53565b604051808215151515815260200191505060405180910390f35b600080600581111561060757fe5b6000848154811061061457fe5b906000526020600020906008020160070160149054906101000a900460ff16600581111561063e57fe5b146106b1576040517f08c379a00000000000000000000000000000000000000000000000000000000081526004018080602001828103825260158152602001807f4c6f616e20696e20696e76616c6964207374617465000000000000000000000081525060200191505060405180910390fd5b600083815481106106be57fe5b906000526020600020906008020160020154341015610745576040517f08c379a000000000000000000000000000000000000000000000000000000000815260040180806020018281038252601a8152602001807f496e73756666696369656e742062616c616e636520676976656e00000000000081525060200191505060405180910390fd5b816000848154811061075357fe5b906000526020600020906008020160040154116107bb576040517f08c379a0000000000000000000000000000000000000000000000000000000008152600401808060200182810382526036815260200180611d5d6036913960400191505060405180910390fd5b33600084815481106107c957fe5b906000526020600020906008020160050160006101000a81548173ffffffffffffffffffffffffffffffffffffffff021916908373ffffffffffffffffffffffffffffffffffffffff160217905550816000848154811061082657fe5b90600052602060002090600802016006018190555060016000848154811061084a57fe5b906000526020600020906008020160070160146101000a81548160ff0219169083600581111561087657fe5b021790555092915050565b600080600080600080600080888154811061089857fe5b906000526020600020906008020160010160009054906101000a900473ffffffffffffffffffffffffffffffffffffffff16600089815481106108d757fe5b90600052602060002090600802016002015460008a815481106108f657fe5b90600052602060002090600802016003015460008b8154811061091557fe5b90600052602060002090600802016004015460008c8154811061093457fe5b906000526020600020906008020160050160009054906101000a900473ffffffffffffffffffffffffffffffffffffffff1660008d8154811061097357fe5b90600052602060002090600802016006015460008e8154811061099257fe5b906000526020600020906008020160070160009054906101000a900473ffffffffffffffffffffffffffffffffffffffff168696508292508090509650965096509650965096509650919395979092949650565b6000600260058111156109f557fe5b60008381548110610a0257fe5b906000526020600020906008020160070160149054906101000a900460ff166005811115610a2c57fe5b149050919050565b6000806040518061012001604052804281526020013373ffffffffffffffffffffffffffffffffffffffff168152602001868152602001858152602001848152602001600073ffffffffffffffffffffffffffffffffffffffff16815260200160008152602001600073ffffffffffffffffffffffffffffffffffffffff16815260200160006005811115610ac557fe5b81525090806001815401808255809150506001900390600052602060002090600802016000909190919091506000820151816000015560208201518160010160006101000a81548173ffffffffffffffffffffffffffffffffffffffff021916908373ffffffffffffffffffffffffffffffffffffffff16021790555060408201518160020155606082015181600301556080820151816004015560a08201518160050160006101000a81548173ffffffffffffffffffffffffffffffffffffffff021916908373ffffffffffffffffffffffffffffffffffffffff16021790555060c0820151816006015560e08201518160070160006101000a81548173ffffffffffffffffffffffffffffffffffffffff021916908373ffffffffffffffffffffffffffffffffffffffff1602179055506101008201518160070160146101000a81548160ff02191690836005811115610c1d57fe5b0217905550505060008054905090509392505050565b60016005811115610c4057fe5b60008281548110610c4d57fe5b906000526020600020906008020160070160149054906101000a900460ff166005811115610c7757fe5b14610cea576040517f08c379a00000000000000000000000000000000000000000000000000000000081526004018080602001828103825260158152602001807f4c6f616e20696e20696e76616c6964207374617465000000000000000000000081525060200191505060405180910390fd5b60008181548110610cf757fe5b906000526020600020906008020160010160009054906101000a900473ffffffffffffffffffffffffffffffffffffffff1673ffffffffffffffffffffffffffffffffffffffff163373ffffffffffffffffffffffffffffffffffffffff1614610dc9576040517f08c379a00000000000000000000000000000000000000000000000000000000081526004018080602001828103825260168152602001807f43616c6c6572206973206e6f7420426f72726f7765720000000000000000000081525060200191505060405180910390fd5b60008181548110610dd657fe5b906000526020600020906008020160010160009054906101000a900473ffffffffffffffffffffffffffffffffffffffff1673ffffffffffffffffffffffffffffffffffffffff166108fc60008381548110610e2e57fe5b9060005260206000209060080201600201549081150290604051600060405180830381858888f19350505050158015610e6b573d6000803e3d6000fd5b50600260008281548110610e7b57fe5b906000526020600020906008020160070160146101000a81548160ff02191690836005811115610ea757fe5b021790555050565b60008080549050905090565b60016005811115610ec857fe5b60008281548110610ed557fe5b906000526020600020906008020160070160149054906101000a900460ff166005811115610eff57fe5b14610f72576040517f08c379a00000000000000000000000000000000000000000000000000000000081526004018080602001828103825260158152602001807f4c6f616e20696e20696e76616c6964207374617465000000000000000000000081525060200191505060405180910390fd5b60008181548110610f7f57fe5b906000526020600020906008020160010160009054906101000a900473ffffffffffffffffffffffffffffffffffffffff1673ffffffffffffffffffffffffffffffffffffffff163373ffffffffffffffffffffffffffffffffffffffff1614611051576040517f08c379a00000000000000000000000000000000000000000000000000000000081526004018080602001828103825260168152602001807f43616c6c6572206973206e6f7420426f72726f7765720000000000000000000081525060200191505060405180910390fd5b6000818154811061105e57fe5b906000526020600020906008020160050160009054906101000a900473ffffffffffffffffffffffffffffffffffffffff1673ffffffffffffffffffffffffffffffffffffffff166108fc600083815481106110b657fe5b9060005260206000209060080201600201549081150290604051600060405180830381858888f193505050501580156110f3573d6000803e3d6000fd5b50600080828154811061110257fe5b906000526020600020906008020160050160006101000a81548173ffffffffffffffffffffffffffffffffffffffff021916908373ffffffffffffffffffffffffffffffffffffffff160217905550600080828154811061115f57fe5b90600052602060002090600802016006018190555060016000828154811061118357fe5b906000526020600020906008020160070160146101000a81548160ff021916908360058111156111af57fe5b021790555050565b600360058111156111c457fe5b600082815481106111d157fe5b906000526020600020906008020160070160149054906101000a900460ff1660058111156111fb57fe5b1461126e576040517f08c379a00000000000000000000000000000000000000000000000000000000081526004018080602001828103825260158152602001807f4c6f616e20696e20696e76616c6964207374617465000000000000000000000081525060200191505060405180910390fd5b6000818154811061127b57fe5b9060005260206000209060080201600401546000828154811061129a57fe5b90600052602060002090600802016002015401341015611322576040517f08c379a00000000000000000000000000000000000000000000000000000000081526004018080602001828103825260208152602001807f416d6f756e74206c657373207468616e206c6f616e202b20696e74657265737481525060200191505060405180910390fd5b6000818154811061132f57fe5b906000526020600020906008020160050160009054906101000a900473ffffffffffffffffffffffffffffffffffffffff1673ffffffffffffffffffffffffffffffffffffffff166108fc6000838154811061138757fe5b9060005260206000209060080201600201549081150290604051600060405180830381858888f193505050501580156113c4573d6000803e3d6000fd5b50600081815481106113d257fe5b906000526020600020906008020160050160009054906101000a900473ffffffffffffffffffffffffffffffffffffffff1673ffffffffffffffffffffffffffffffffffffffff166108fc6000838154811061142a57fe5b9060005260206000209060080201600601549081150290604051600060405180830381858888f19350505050158015611467573d6000803e3d6000fd5b506000818154811061147557fe5b906000526020600020906008020160070160009054906101000a900473ffffffffffffffffffffffffffffffffffffffff1673ffffffffffffffffffffffffffffffffffffffff166108fc600083815481106114cd57fe5b906000526020600020906008020160060154600084815481106114ec57fe5b906000526020600020906008020160040154039081150290604051600060405180830381858888f1935050505015801561152a573d6000803e3d6000fd5b506000818154811061153857fe5b906000526020600020906008020160070160009054906101000a900473ffffffffffffffffffffffffffffffffffffffff1673ffffffffffffffffffffffffffffffffffffffff166108fc6000838154811061159057fe5b9060005260206000209060080201600201549081150290604051600060405180830381858888f193505050501580156115cd573d6000803e3d6000fd5b506004600082815481106115dd57fe5b906000526020600020906008020160070160146101000a81548160ff0219169083600581111561160957fe5b021790555050565b6003600581111561161e57fe5b6000828154811061162b57fe5b906000526020600020906008020160070160149054906101000a900460ff16600581111561165557fe5b146116c8576040517f08c379a00000000000000000000000000000000000000000000000000000000081526004018080602001828103825260158152602001807f4c6f616e20696e20696e76616c6964207374617465000000000000000000000081525060200191505060405180910390fd5b42600082815481106116d657fe5b906000526020600020906008020160030154600083815481106116f557fe5b906000526020600020906008020160000154011061177b576040517f08c379a00000000000000000000000000000000000000000000000000000000081526004018080602001828103825260188152602001807f4c6f616e20686173206e6f74206578706972656420796574000000000000000081525060200191505060405180910390fd5b6000818154811061178857fe5b906000526020600020906008020160070160009054906101000a900473ffffffffffffffffffffffffffffffffffffffff1673ffffffffffffffffffffffffffffffffffffffff163373ffffffffffffffffffffffffffffffffffffffff161461185a576040517f08c379a00000000000000000000000000000000000000000000000000000000081526004018080602001828103825260188152602001807f43616c6c6572206973206e6f7420746865206c6f616e6572000000000000000081525060200191505060405180910390fd5b6000818154811061186757fe5b906000526020600020906008020160020154471161188157fe5b6000818154811061188e57fe5b906000526020600020906008020160070160009054906101000a900473ffffffffffffffffffffffffffffffffffffffff1673ffffffffffffffffffffffffffffffffffffffff166108fc600083815481106118e657fe5b9060005260206000209060080201600201549081150290604051600060405180830381858888f19350505050158015611923573d6000803e3d6000fd5b5060056000828154811061193357fe5b906000526020600020906008020160070160146101000a81548160ff0219169083600581111561195f57fe5b021790555050565b600060058081111561197557fe5b6000838154811061198257fe5b906000526020600020906008020160070160149054906101000a900460ff1660058111156119ac57fe5b149050919050565b6000600160058111156119c357fe5b600083815481106119d057fe5b906000526020600020906008020160070160149054906101000a900460ff1660058111156119fa57fe5b149050919050565b600060046005811115611a1157fe5b60008381548110611a1e57fe5b906000526020600020906008020160070160149054906101000a900460ff166005811115611a4857fe5b149050919050565b600060036005811115611a5f57fe5b60008381548110611a6c57fe5b906000526020600020906008020160070160149054906101000a900460ff166005811115611a9657fe5b149050919050565b60026005811115611aab57fe5b60008281548110611ab857fe5b906000526020600020906008020160070160149054906101000a900460ff166005811115611ae257fe5b14611b55576040517f08c379a00000000000000000000000000000000000000000000000000000000081526004018080602001828103825260158152602001807f4c6f616e20696e20696e76616c6964207374617465000000000000000000000081525060200191505060405180910390fd5b60008181548110611b6257fe5b906000526020600020906008020160020154341015611be9576040517f08c379a000000000000000000000000000000000000000000000000000000000815260040180806020018281038252601a8152602001807f496e73756666696369656e742062616c616e636520676976656e00000000000081525060200191505060405180910390fd5b60008181548110611bf657fe5b906000526020600020906008020160010160009054906101000a900473ffffffffffffffffffffffffffffffffffffffff1673ffffffffffffffffffffffffffffffffffffffff166108fc60008381548110611c4e57fe5b9060005260206000209060080201600201549081150290604051600060405180830381858888f19350505050158015611c8b573d6000803e3d6000fd5b503360008281548110611c9a57fe5b906000526020600020906008020160070160006101000a81548173ffffffffffffffffffffffffffffffffffffffff021916908373ffffffffffffffffffffffffffffffffffffffff160217905550600360008281548110611cf857fe5b906000526020600020906008020160070160146101000a81548160ff02191690836005811115611d2457fe5b021790555050565b6000808281548110611d3a57fe5b9060005260206000209060080201600001549050919050565b6000600190509056fe47756172616e746f7220696e746572657374206d757374206265206c657373207468616e20426f72726f77657220696e746572657374a2646970667358221220d65452e160bb4fb1130f5017ba42a678021a313d0422348ad94b1a3c593eb5ff64736f6c63430006060033",
  "immutableReferences": {},
  "source": "\n// SPDX-License-Identifier: MIT\npragma solidity ^0.6.6;\n\n\ncontract MyContract {\n    \n\n    function test() public pure returns(bool) {\n        return true;\n    }\n\n    \n    enum State {\n        REQUESTED,\n        PENDING,\n        GUARANTEED,\n        LOANED,\n        PAID,\n        TERMINATED\n    }\n    \n  \n    struct LoanRequest{\n        uint    creationDate;       \n        \n        address payable borrower;\n        uint    amount;             // Amount to be borrowed\n        uint    expiryTime;         // Max time (in seconds) the loan will be paid back\n        uint    interestPaid;       // Amount (in wei) paid on loan payback\n  \n        address payable guarantor; \n        uint    guarantorInterest;  // Amount (in wei) taken from interest by the guarantor\n  \n        address payable loaner;     \n        State   state;            \n    }\n    \n\n    LoanRequest[] loanRequests;\n    \n\n    function getLoanRequestCount() public view returns(uint) {\n        return loanRequests.length;  \n    }\n  \n\n    function getLoanRequest(uint index) public view returns(\n        address, \n        uint, \n        uint,\n        uint, \n        address,\n        uint,\n        address) {\n  \n        return (\n            loanRequests[index].borrower,\n            loanRequests[index].amount,\n            loanRequests[index].expiryTime,\n            loanRequests[index].interestPaid,\n            loanRequests[index].guarantor,\n            loanRequests[index].guarantorInterest,\n            loanRequests[index].loaner\n        );\n    }\n    \n\n    function getLoanRequestTimestamp(uint index) public view returns(uint) {\n        return loanRequests[index].creationDate;\n    }\n  \n\n    function isPending(uint index) public view returns(bool) {\n      return loanRequests[index].state == State.PENDING;\n    }\n\n\n    function isGuaranteed(uint index) public view returns(bool) {\n      return loanRequests[index].state == State.GUARANTEED;\n    }\n  \n\n    function isLoaned(uint index) public view returns(bool) {\n      return loanRequests[index].state == State.LOANED;\n    }\n\n    function isPaid(uint index) public view returns(bool) {\n      return loanRequests[index].state == State.PAID;\n    }\n\n\n    function isTerminated(uint index) public view returns(bool) {\n      return loanRequests[index].state == State.TERMINATED;\n    }\n\n\n    // Borrower Functions\n      \n\n    function submitLoanRequest(uint amount, uint expiryTime, uint interestPaid) public returns(uint) {\n  \n        loanRequests.push(LoanRequest(\n            now,\n            msg.sender,\n            amount, \n            expiryTime, \n            interestPaid,\n            address(0),\n            0,\n            address(0),\n            State.REQUESTED\n        ));\n  \n        return loanRequests.length;\n    }\n    \n\n    function acceptGuarantee(uint index) public {\n        \n        require(loanRequests[index].state == State.PENDING, \"Loan in invalid state\");   \n        require(msg.sender == loanRequests[index].borrower, \"Caller is not Borrower\");\n        \n        // Transfer money from contract to Borrower\n        loanRequests[index].borrower.transfer(loanRequests[index].amount);\n        \n        // Mark the guarantee as guarantee as accapted\n        loanRequests[index].state = State.GUARANTEED;\n    }\n    \n\n    function declineGuarantee(uint index) public {\n        \n        require(loanRequests[index].state == State.PENDING, \"Loan in invalid state\");   \n        require(msg.sender == loanRequests[index].borrower, \"Caller is not Borrower\");\n        \n        // Transfer money from contract to Guarantor\n        loanRequests[index].guarantor.transfer(loanRequests[index].amount);\n        \n        // Remove guarantee from request\n        loanRequests[index].guarantor           = address(0);\n        loanRequests[index].guarantorInterest   = 0;\n        loanRequests[index].state               = State.PENDING;\n    }\n  \n\n    function payLoan(uint index) public payable {\n        \n        require(loanRequests[index].state == State.LOANED,                                      \"Loan in invalid state\");   \n        require(msg.value >= loanRequests[index].amount + loanRequests[index].interestPaid,     \"Amount less than loan + interest\");\n\n        \n        // Transfer guarantee back to Guarantor\n        loanRequests[index].guarantor.transfer(loanRequests[index].amount);\n        \n        // Transfer interest entitled to Guarantor\n        loanRequests[index].guarantor.transfer(loanRequests[index].guarantorInterest);\n        \n        // Transfer interest entitled to Loaner\n        loanRequests[index].loaner.transfer(loanRequests[index].interestPaid - loanRequests[index].guarantorInterest);\n        \n        // Transfer original amount to Loaner\n        loanRequests[index].loaner.transfer(loanRequests[index].amount);\n        \n        // Mark loan as paid\n        loanRequests[index].state = State.PAID;\n    }\n  \n\n    // Guarantor Functions\n      \n\n    function guaranteeLoan(uint index, uint interest) public payable returns(uint){\n\n        require(loanRequests[index].state == State.REQUESTED,   \"Loan in invalid state\");   \n        require(msg.value >= loanRequests[index].amount,        \"Insufficient balance given\");\n        require(loanRequests[index].interestPaid > interest,    \"Guarantor interest must be less than Borrower interest\");\n        \n        // Store guarantee in contract done by default\n  \n        // Update the loan request information\n        loanRequests[index].guarantor           = msg.sender;\n        loanRequests[index].guarantorInterest   = interest;\n        loanRequests[index].state               = State.PENDING;\n    }\n    \n    \n    // Loaner Functions\n    \n\n    function provideLoan(uint index) public payable{\n        \n        require(loanRequests[index].state == State.GUARANTEED,  \"Loan in invalid state\");   \n        require(msg.value >= loanRequests[index].amount,        \"Insufficient balance given\");\n        \n        \n        // Transfer Money\n        loanRequests[index].borrower.transfer(loanRequests[index].amount);\n        \n        // Update loan request\n        loanRequests[index].loaner  = msg.sender;\n        loanRequests[index].state   = State.LOANED;\n    }\n\n    function getGuarantee(uint index) public {\n        \n        require(loanRequests[index].state == State.LOANED,                                  \"Loan in invalid state\");   \n        require(loanRequests[index].creationDate + loanRequests[index].expiryTime < now,    \"Loan has not expired yet\");\n        require(msg.sender == loanRequests[index].loaner,                                   \"Caller is not the loaner\");\n        \n        // Check if there is enough balance in the contract (should always be true)\n        assert(address(this).balance > loanRequests[index].amount);\n        \n        // Pay guarantee to Lender \n        loanRequests[index].loaner.transfer(loanRequests[index].amount);\n        \n        // Mark loan request as successfully terminated\n        loanRequests[index].state = State.TERMINATED;\n    }\n}\n",
  "sourcePath": "/Users/manwelbugeja/School/ict3009/assignments/ict3009-assignment-1/src/myproject/contracts/MyContract.sol",
  "compiler": {
    "name": "solc",
    "version": "0.6.6+commit.6c089d02.Emscripten.clang"
  },
  "schemaVersion": "3.3.4",
  "updatedAt": "2021-03-04T17:31:53.463Z",
  "networkType": "ethereum",
  "devdoc": {
    "methods": {}
  },
  "userdoc": {
    "methods": {}
  }
}