{
  "contractName": "MyContract",
  "abi": [
    {
      "inputs": [],
      "name": "test",
      "outputs": [
        {
          "internalType": "bool",
          "name": "",
          "type": "bool"
        }
      ],
      "stateMutability": "pure",
      "type": "function"
    },
    {
      "inputs": [
        {
          "internalType": "int256",
          "name": "amount",
          "type": "int256"
        },
        {
          "internalType": "int256",
          "name": "expiry_date",
          "type": "int256"
        },
        {
          "internalType": "int256",
          "name": "interest",
          "type": "int256"
        }
      ],
      "name": "file_borrow_request",
      "outputs": [
        {
          "internalType": "uint256",
          "name": "",
          "type": "uint256"
        }
      ],
      "stateMutability": "payable",
      "type": "function"
    }
  ],
  "bytecode": "0x6080604052600060015534801561001557600080fd5b50610173806100256000396000f3fe6080604052600436106100295760003560e01c80630e2fdea81461002e578063f8a8fd6d14610084575b600080fd5b61006e6004803603606081101561004457600080fd5b810190808035906020019092919080359060200190929190803590602001909291905050506100b3565b6040518082815260200191505060405180910390f35b34801561009057600080fd5b50610099610134565b604051808215151515815260200191505060405180910390f35b60008060405180606001604052808681526020018581526020018481525090806001815401808255809150506001900390600052602060002090600302016000909190919091506000820151816000015560208201518160010155604082015181600201555050600160008154809291906001019190505590509392505050565b6000600190509056fea2646970667358221220c90c4be4cfbf664eb2f91b68f2b61876ff4d0f2e21719baf93d3bdfe2e65762264736f6c63430006060033",
  "immutableReferences": {},
  "source": "// SPDX-License-Identifier: MIT\npragma solidity ^0.6.6;\n\n\ncontract MyContract {\n\n  struct borrow_request{\n    int amount;\n    int expiry_date;\n    int interest;\n  }\n  \n  borrow_request[] borrow_requests;\n  uint borrow_request_count = 0;\n\n  function test() public pure returns(bool) {\n    return true;\n  }\n\n  function file_borrow_request(int amount, int expiry_date, int interest) public payable returns(uint) {\n\n    borrow_requests.push(borrow_request(amount, expiry_date, interest));\n\n    return borrow_request_count++;\n  }\n\n\n}\n",
  "sourcePath": "/Users/manwelbugeja/School/ict3009/assignments/ict3009-assignment-1/src/myproject/contracts/MyContract.sol",
  "compiler": {
    "name": "solc",
    "version": "0.6.6+commit.6c089d02.Emscripten.clang"
  },
  "schemaVersion": "3.3.4",
  "updatedAt": "2021-02-27T09:45:15.121Z",
  "devdoc": {
    "methods": {}
  },
  "userdoc": {
    "methods": {}
  }
}