{
  "contractName": "MyContract",
  "abi": [
    {
      "inputs": [
        {
          "internalType": "int256",
          "name": "amount",
          "type": "int256"
        },
        {
          "internalType": "int256",
          "name": "expiry_date",
          "type": "int256"
        },
        {
          "internalType": "int256",
          "name": "interest",
          "type": "int256"
        }
      ],
      "name": "file_borrow_request",
      "outputs": [
        {
          "internalType": "uint256",
          "name": "",
          "type": "uint256"
        }
      ],
      "stateMutability": "payable",
      "type": "function"
    }
  ],
  "bytecode": "0x6080604052600060015534801561001557600080fd5b5061012b806100256000396000f3fe608060405260043610601c5760003560e01c80630e2fdea8146021575b600080fd5b605e60048036036060811015603557600080fd5b810190808035906020019092919080359060200190929190803590602001909291905050506074565b6040518082815260200191505060405180910390f35b6000806040518060600160405280868152602001858152602001848152509080600181540180825580915050600190039060005260206000209060030201600090919091909150600082015181600001556020820151816001015560408201518160020155505060016000815480929190600101919050559050939250505056fea2646970667358221220d2da8e86bbfac7a3868feb531721cdafbaf911174a16f2b372d605299819ffb064736f6c63430006060033",
  "immutableReferences": {},
  "source": "// SPDX-License-Identifier: MIT\npragma solidity ^0.6.6;\n\n\ncontract MyContract {\n\n  struct borrow_request{\n    int amount;\n    int expiry_date;\n    int interest;\n  }\n  \n  borrow_request[] borrow_requests;\n  uint borrow_request_count = 0;\n\n  function file_borrow_request(int amount, int expiry_date, int interest) public payable returns(uint) {\n\n    borrow_requests.push(borrow_request(amount, expiry_date, interest));\n\n    return borrow_request_count++;\n  }\n\n}\n",
  "sourcePath": "/Users/manwelbugeja/School/ict3009/assignments/ict3009-assignment-1/src/myproject/contracts/MyContract.sol",
  "compiler": {
    "name": "solc",
    "version": "0.6.6+commit.6c089d02.Emscripten.clang"
  },
  "schemaVersion": "3.3.4",
  "updatedAt": "2021-02-26T13:13:24.259Z",
  "devdoc": {
    "methods": {}
  },
  "userdoc": {
    "methods": {}
  }
}