{
  "contractName": "MyContract",
  "abi": [
    {
      "inputs": [],
      "name": "test",
      "outputs": [
        {
          "internalType": "bool",
          "name": "",
          "type": "bool"
        }
      ],
      "stateMutability": "pure",
      "type": "function"
    },
    {
      "inputs": [],
      "name": "getLoanRequestCount",
      "outputs": [
        {
          "internalType": "uint256",
          "name": "",
          "type": "uint256"
        }
      ],
      "stateMutability": "view",
      "type": "function"
    },
    {
      "inputs": [
        {
          "internalType": "uint256",
          "name": "index",
          "type": "uint256"
        }
      ],
      "name": "getLoanRequest",
      "outputs": [
        {
          "internalType": "address",
          "name": "",
          "type": "address"
        },
        {
          "internalType": "uint256",
          "name": "",
          "type": "uint256"
        },
        {
          "internalType": "uint256",
          "name": "",
          "type": "uint256"
        },
        {
          "internalType": "uint256",
          "name": "",
          "type": "uint256"
        },
        {
          "internalType": "address",
          "name": "",
          "type": "address"
        },
        {
          "internalType": "uint256",
          "name": "",
          "type": "uint256"
        },
        {
          "internalType": "address",
          "name": "",
          "type": "address"
        }
      ],
      "stateMutability": "view",
      "type": "function"
    },
    {
      "inputs": [
        {
          "internalType": "uint256",
          "name": "amount",
          "type": "uint256"
        },
        {
          "internalType": "uint256",
          "name": "expiryTime",
          "type": "uint256"
        },
        {
          "internalType": "uint256",
          "name": "interestPaid",
          "type": "uint256"
        }
      ],
      "name": "submitLoanRequest",
      "outputs": [
        {
          "internalType": "uint256",
          "name": "",
          "type": "uint256"
        }
      ],
      "stateMutability": "nonpayable",
      "type": "function"
    },
    {
      "inputs": [
        {
          "internalType": "uint256",
          "name": "index",
          "type": "uint256"
        }
      ],
      "name": "acceptGuarantee",
      "outputs": [],
      "stateMutability": "nonpayable",
      "type": "function"
    },
    {
      "inputs": [
        {
          "internalType": "uint256",
          "name": "index",
          "type": "uint256"
        }
      ],
      "name": "declineGuarantee",
      "outputs": [],
      "stateMutability": "nonpayable",
      "type": "function"
    },
    {
      "inputs": [
        {
          "internalType": "uint256",
          "name": "index",
          "type": "uint256"
        }
      ],
      "name": "payLoan",
      "outputs": [],
      "stateMutability": "payable",
      "type": "function"
    },
    {
      "inputs": [
        {
          "internalType": "uint256",
          "name": "index",
          "type": "uint256"
        },
        {
          "internalType": "uint256",
          "name": "interest",
          "type": "uint256"
        }
      ],
      "name": "guaranteeLoan",
      "outputs": [
        {
          "internalType": "uint256",
          "name": "",
          "type": "uint256"
        }
      ],
      "stateMutability": "payable",
      "type": "function"
    },
    {
      "inputs": [
        {
          "internalType": "uint256",
          "name": "index",
          "type": "uint256"
        }
      ],
      "name": "provideLoan",
      "outputs": [],
      "stateMutability": "payable",
      "type": "function"
    },
    {
      "inputs": [
        {
          "internalType": "uint256",
          "name": "index",
          "type": "uint256"
        }
      ],
      "name": "getGuarantee",
      "outputs": [],
      "stateMutability": "nonpayable",
      "type": "function"
    }
  ],
  "bytecode": "0x608060405234801561001057600080fd5b5061190c806100206000396000f3fe6080604052600436106100915760003560e01c806394b4317d1161005957806394b4317d146102a8578063a8d7b3ec146102e3578063aa8ae28b14610311578063d1da16241461034c578063f8a8fd6d1461037a57610091565b806302e62b40146100965780631b3b8671146100e25780633d32dd24146101df5780634b82812e146102425780638c84aa941461027d575b600080fd5b6100cc600480360360408110156100ac57600080fd5b8101908080359060200190929190803590602001909291905050506103a9565b6040518082815260200191505060405180910390f35b3480156100ee57600080fd5b5061011b6004803603602081101561010557600080fd5b81019080803590602001909291905050506105f1565b604051808873ffffffffffffffffffffffffffffffffffffffff1673ffffffffffffffffffffffffffffffffffffffff1681526020018781526020018681526020018581526020018473ffffffffffffffffffffffffffffffffffffffff1673ffffffffffffffffffffffffffffffffffffffff1681526020018381526020018273ffffffffffffffffffffffffffffffffffffffff1673ffffffffffffffffffffffffffffffffffffffff16815260200197505050505050505060405180910390f35b3480156101eb57600080fd5b5061022c6004803603606081101561020257600080fd5b81019080803590602001909291908035906020019092919080359060200190929190505050610756565b6040518082815260200191505060405180910390f35b34801561024e57600080fd5b5061027b6004803603602081101561026557600080fd5b8101908080359060200190929190505050610955565b005b34801561028957600080fd5b50610292610bd1565b6040518082815260200191505060405180910390f35b3480156102b457600080fd5b506102e1600480360360208110156102cb57600080fd5b8101908080359060200190929190505050610bdd565b005b61030f600480360360208110156102f957600080fd5b8101908080359060200190929190505050610e99565b005b34801561031d57600080fd5b5061034a6004803603602081101561033457600080fd5b81019080803590602001909291905050506112f3565b005b6103786004803603602081101561036257600080fd5b8101908080359060200190929190505050611649565b005b34801561038657600080fd5b5061038f611897565b604051808215151515815260200191505060405180910390f35b60008060058111156103b757fe5b600084815481106103c457fe5b906000526020600020906008020160070160149054906101000a900460ff1660058111156103ee57fe5b14610461576040517f08c379a00000000000000000000000000000000000000000000000000000000081526004018080602001828103825260168152602001807f4c6f616e20616c726561647920636f6d706c657465640000000000000000000081525060200191505060405180910390fd5b6000838154811061046e57fe5b9060005260206000209060080201600201543410156104f5576040517f08c379a000000000000000000000000000000000000000000000000000000000815260040180806020018281038252601a8152602001807f496e73756666696369656e742062616c616e636520676976656e00000000000081525060200191505060405180910390fd5b816000848154811061050357fe5b9060005260206000209060080201600401541161056b576040517f08c379a00000000000000000000000000000000000000000000000000000000081526004018080602001828103825260368152602001806118a16036913960400191505060405180910390fd5b336000848154811061057957fe5b906000526020600020906008020160050160006101000a81548173ffffffffffffffffffffffffffffffffffffffff021916908373ffffffffffffffffffffffffffffffffffffffff16021790555081600084815481106105d657fe5b90600052602060002090600802016006018190555092915050565b600080600080600080600080888154811061060857fe5b906000526020600020906008020160010160009054906101000a900473ffffffffffffffffffffffffffffffffffffffff166000898154811061064757fe5b90600052602060002090600802016002015460008a8154811061066657fe5b90600052602060002090600802016003015460008b8154811061068557fe5b90600052602060002090600802016004015460008c815481106106a457fe5b906000526020600020906008020160050160009054906101000a900473ffffffffffffffffffffffffffffffffffffffff1660008d815481106106e357fe5b90600052602060002090600802016006015460008e8154811061070257fe5b906000526020600020906008020160070160009054906101000a900473ffffffffffffffffffffffffffffffffffffffff168696508292508090509650965096509650965096509650919395979092949650565b6000806040518061012001604052804281526020013373ffffffffffffffffffffffffffffffffffffffff168152602001868152602001858152602001848152602001600073ffffffffffffffffffffffffffffffffffffffff16815260200160008152602001600073ffffffffffffffffffffffffffffffffffffffff168152602001600060058111156107e757fe5b81525090806001815401808255809150506001900390600052602060002090600802016000909190919091506000820151816000015560208201518160010160006101000a81548173ffffffffffffffffffffffffffffffffffffffff021916908373ffffffffffffffffffffffffffffffffffffffff16021790555060408201518160020155606082015181600301556080820151816004015560a08201518160050160006101000a81548173ffffffffffffffffffffffffffffffffffffffff021916908373ffffffffffffffffffffffffffffffffffffffff16021790555060c0820151816006015560e08201518160070160006101000a81548173ffffffffffffffffffffffffffffffffffffffff021916908373ffffffffffffffffffffffffffffffffffffffff1602179055506101008201518160070160146101000a81548160ff0219169083600581111561093f57fe5b0217905550505060008054905090509392505050565b6001600581111561096257fe5b6000828154811061096f57fe5b906000526020600020906008020160070160149054906101000a900460ff16600581111561099957fe5b14610a0c576040517f08c379a00000000000000000000000000000000000000000000000000000000081526004018080602001828103825260158152602001807f4c6f616e20696e20696e76616c6964207374617465000000000000000000000081525060200191505060405180910390fd5b60008181548110610a1957fe5b906000526020600020906008020160010160009054906101000a900473ffffffffffffffffffffffffffffffffffffffff1673ffffffffffffffffffffffffffffffffffffffff163373ffffffffffffffffffffffffffffffffffffffff1614610aeb576040517f08c379a00000000000000000000000000000000000000000000000000000000081526004018080602001828103825260168152602001807f43616c6c6572206973206e6f7420426f72726f7765720000000000000000000081525060200191505060405180910390fd5b60008181548110610af857fe5b906000526020600020906008020160010160009054906101000a900473ffffffffffffffffffffffffffffffffffffffff1673ffffffffffffffffffffffffffffffffffffffff166108fc60008381548110610b5057fe5b9060005260206000209060080201600201549081150290604051600060405180830381858888f19350505050158015610b8d573d6000803e3d6000fd5b50600260008281548110610b9d57fe5b906000526020600020906008020160070160146101000a81548160ff02191690836005811115610bc957fe5b021790555050565b60008080549050905090565b60016005811115610bea57fe5b60008281548110610bf757fe5b906000526020600020906008020160070160149054906101000a900460ff166005811115610c2157fe5b14610c94576040517f08c379a00000000000000000000000000000000000000000000000000000000081526004018080602001828103825260158152602001807f4c6f616e20696e20696e76616c6964207374617465000000000000000000000081525060200191505060405180910390fd5b60008181548110610ca157fe5b906000526020600020906008020160010160009054906101000a900473ffffffffffffffffffffffffffffffffffffffff1673ffffffffffffffffffffffffffffffffffffffff163373ffffffffffffffffffffffffffffffffffffffff1614610d73576040517f08c379a00000000000000000000000000000000000000000000000000000000081526004018080602001828103825260168152602001807f43616c6c6572206973206e6f7420426f72726f7765720000000000000000000081525060200191505060405180910390fd5b60008181548110610d8057fe5b906000526020600020906008020160050160009054906101000a900473ffffffffffffffffffffffffffffffffffffffff1673ffffffffffffffffffffffffffffffffffffffff166108fc60008381548110610dd857fe5b9060005260206000209060080201600201549081150290604051600060405180830381858888f19350505050158015610e15573d6000803e3d6000fd5b506000808281548110610e2457fe5b906000526020600020906008020160050160006101000a81548173ffffffffffffffffffffffffffffffffffffffff021916908373ffffffffffffffffffffffffffffffffffffffff1602179055506000808281548110610e8157fe5b90600052602060002090600802016006018190555050565b60036005811115610ea657fe5b60008281548110610eb357fe5b906000526020600020906008020160070160149054906101000a900460ff166005811115610edd57fe5b14610f50576040517f08c379a00000000000000000000000000000000000000000000000000000000081526004018080602001828103825260158152602001807f4c6f616e20696e20696e76616c6964207374617465000000000000000000000081525060200191505060405180910390fd5b60008181548110610f5d57fe5b90600052602060002090600802016004015460008281548110610f7c57fe5b90600052602060002090600802016002015401341015611004576040517f08c379a00000000000000000000000000000000000000000000000000000000081526004018080602001828103825260208152602001807f416d6f756e74206c657373207468616e206c6f616e202b20696e74657265737481525060200191505060405180910390fd5b6000818154811061101157fe5b906000526020600020906008020160050160009054906101000a900473ffffffffffffffffffffffffffffffffffffffff1673ffffffffffffffffffffffffffffffffffffffff166108fc6000838154811061106957fe5b9060005260206000209060080201600201549081150290604051600060405180830381858888f193505050501580156110a6573d6000803e3d6000fd5b50600081815481106110b457fe5b906000526020600020906008020160050160009054906101000a900473ffffffffffffffffffffffffffffffffffffffff1673ffffffffffffffffffffffffffffffffffffffff166108fc6000838154811061110c57fe5b9060005260206000209060080201600601549081150290604051600060405180830381858888f19350505050158015611149573d6000803e3d6000fd5b506000818154811061115757fe5b906000526020600020906008020160070160009054906101000a900473ffffffffffffffffffffffffffffffffffffffff1673ffffffffffffffffffffffffffffffffffffffff166108fc600083815481106111af57fe5b906000526020600020906008020160060154600084815481106111ce57fe5b906000526020600020906008020160040154039081150290604051600060405180830381858888f1935050505015801561120c573d6000803e3d6000fd5b506000818154811061121a57fe5b906000526020600020906008020160070160009054906101000a900473ffffffffffffffffffffffffffffffffffffffff1673ffffffffffffffffffffffffffffffffffffffff166108fc6000838154811061127257fe5b9060005260206000209060080201600201549081150290604051600060405180830381858888f193505050501580156112af573d6000803e3d6000fd5b506004600082815481106112bf57fe5b906000526020600020906008020160070160146101000a81548160ff021916908360058111156112eb57fe5b021790555050565b6003600581111561130057fe5b6000828154811061130d57fe5b906000526020600020906008020160070160149054906101000a900460ff16600581111561133757fe5b146113aa576040517f08c379a00000000000000000000000000000000000000000000000000000000081526004018080602001828103825260158152602001807f4c6f616e20696e20696e76616c6964207374617465000000000000000000000081525060200191505060405180910390fd5b42600082815481106113b857fe5b906000526020600020906008020160030154600083815481106113d757fe5b906000526020600020906008020160000154011061145d576040517f08c379a00000000000000000000000000000000000000000000000000000000081526004018080602001828103825260188152602001807f4c6f616e20686173206e6f74206578706972656420796574000000000000000081525060200191505060405180910390fd5b6000818154811061146a57fe5b906000526020600020906008020160070160009054906101000a900473ffffffffffffffffffffffffffffffffffffffff1673ffffffffffffffffffffffffffffffffffffffff163373ffffffffffffffffffffffffffffffffffffffff161461153c576040517f08c379a00000000000000000000000000000000000000000000000000000000081526004018080602001828103825260188152602001807f43616c6c6572206973206e6f7420746865206c6f616e6572000000000000000081525060200191505060405180910390fd5b6000818154811061154957fe5b906000526020600020906008020160020154471161156357fe5b6000818154811061157057fe5b906000526020600020906008020160070160009054906101000a900473ffffffffffffffffffffffffffffffffffffffff1673ffffffffffffffffffffffffffffffffffffffff166108fc600083815481106115c857fe5b9060005260206000209060080201600201549081150290604051600060405180830381858888f19350505050158015611605573d6000803e3d6000fd5b5060046000828154811061161557fe5b906000526020600020906008020160070160146101000a81548160ff0219169083600581111561164157fe5b021790555050565b6002600581111561165657fe5b6000828154811061166357fe5b906000526020600020906008020160070160149054906101000a900460ff16600581111561168d57fe5b14611700576040517f08c379a00000000000000000000000000000000000000000000000000000000081526004018080602001828103825260158152602001807f4c6f616e20696e20696e76616c6964207374617465000000000000000000000081525060200191505060405180910390fd5b6000818154811061170d57fe5b906000526020600020906008020160020154341015611794576040517f08c379a000000000000000000000000000000000000000000000000000000000815260040180806020018281038252601a8152602001807f496e73756666696369656e742062616c616e636520676976656e00000000000081525060200191505060405180910390fd5b600081815481106117a157fe5b906000526020600020906008020160010160009054906101000a900473ffffffffffffffffffffffffffffffffffffffff1673ffffffffffffffffffffffffffffffffffffffff166108fc600083815481106117f957fe5b9060005260206000209060080201600201549081150290604051600060405180830381858888f19350505050158015611836573d6000803e3d6000fd5b50336000828154811061184557fe5b906000526020600020906008020160070160006101000a81548173ffffffffffffffffffffffffffffffffffffffff021916908373ffffffffffffffffffffffffffffffffffffffff16021790555050565b6000600190509056fe47756172616e746f7220696e746572657374206d757374206265206c657373207468616e20426f72726f77657220696e746572657374a2646970667358221220032f1efcbabbe141c81888d75fb005cb9ec02c24f7bd3b381580359f1d9814fe64736f6c63430006060033",
  "immutableReferences": {},
  "source": "\n// SPDX-License-Identifier: MIT\npragma solidity ^0.6.6;\n\n\ncontract MyContract {\n    \n\n    function test() public pure returns(bool) {\n        return true;\n    }\n    \n    enum State {\n        REQUESTED,\n        PENDING,\n        GUARANTEED,\n        LOANED,\n        PAID,\n        TERMINATED\n    }\n    \n  \n    struct LoanRequest{\n        uint    creationDate;       \n        \n        address payable borrower;\n        uint    amount;             // Amount to be borrowed\n        uint    expiryTime;         // Max time (in seconds) the loan will be paid back\n        uint    interestPaid;       // Amount (in wei) paid on loan payback\n  \n        address payable guarantor; \n        uint    guarantorInterest;  // Amount (in wei) taken from interest by the guarantor\n  \n        address payable loaner;     \n        State   state;            \n    }\n    \n    LoanRequest[] loanRequests;\n    \n    function getLoanRequestCount() public view returns(uint) {\n        return loanRequests.length;  \n    }\n  \n    function getLoanRequest(uint index) public view returns(\n        address, \n        uint, \n        uint,\n        uint, \n        address,\n        uint,\n        address) {\n  \n        return (\n            loanRequests[index].borrower,\n            loanRequests[index].amount,\n            loanRequests[index].expiryTime,\n            loanRequests[index].interestPaid,\n            loanRequests[index].guarantor,\n            loanRequests[index].guarantorInterest,\n            loanRequests[index].loaner\n        );\n    }\n  \n  \n    // Borrower Functions\n      \n    function submitLoanRequest(uint amount, uint expiryTime, uint interestPaid) public returns(uint) {\n  \n        loanRequests.push(LoanRequest(\n            now,\n            msg.sender,\n            amount, \n            expiryTime, \n            interestPaid,\n            address(0),\n            0,\n            address(0),\n            State.REQUESTED\n        ));\n  \n        return loanRequests.length;\n    }\n    \n    function acceptGuarantee(uint index) public {\n        \n        require(loanRequests[index].state == State.PENDING, \"Loan in invalid state\");   \n        require(msg.sender == loanRequests[index].borrower, \"Caller is not Borrower\");\n        \n        // Transfer money from contract to Borrower\n        loanRequests[index].borrower.transfer(loanRequests[index].amount);\n        \n        // Mark the guarantee as guarantee as accapted\n        loanRequests[index].state = State.GUARANTEED;\n    }\n    \n    function declineGuarantee(uint index) public {\n        \n        require(loanRequests[index].state == State.PENDING, \"Loan in invalid state\");   \n        require(msg.sender == loanRequests[index].borrower, \"Caller is not Borrower\");\n        \n        // Transfer money from contract to Guarantor\n        loanRequests[index].guarantor.transfer(loanRequests[index].amount);\n        \n        // Remove guarantee from request\n        loanRequests[index].guarantor = address(0);\n        loanRequests[index].guarantorInterest = 0;\n    }\n  \n    function payLoan(uint index) public payable {\n        \n        require(loanRequests[index].state == State.LOANED,                                      \"Loan in invalid state\");   \n        require(msg.value >= loanRequests[index].amount + loanRequests[index].interestPaid,     \"Amount less than loan + interest\");\n\n        \n        // Transfer guarantee back to Guarantor\n        loanRequests[index].guarantor.transfer(loanRequests[index].amount);\n        \n        // Transfer interest entitled to Guarantor\n        loanRequests[index].guarantor.transfer(loanRequests[index].guarantorInterest);\n        \n        // Transfer interest entitled to Loaner\n        loanRequests[index].loaner.transfer(loanRequests[index].interestPaid - loanRequests[index].guarantorInterest);\n        \n        // Transfer original amount to Loaner\n        loanRequests[index].loaner.transfer(loanRequests[index].amount);\n        \n        // Mark loan as paid\n        loanRequests[index].state = State.PAID;\n    }\n  \n    // Guarantor Functions\n      \n    function guaranteeLoan(uint index, uint interest) public payable returns(uint){\n\n        require(loanRequests[index].state == State.REQUESTED,   \"Loan already completed\");   \n        require(msg.value >= loanRequests[index].amount,        \"Insufficient balance given\");\n        require(loanRequests[index].interestPaid > interest,    \"Guarantor interest must be less than Borrower interest\");\n        \n        // Store guarantee in contract done by default\n  \n        // Update the loan request information\n        loanRequests[index].guarantor = msg.sender;\n        loanRequests[index].guarantorInterest = interest;\n    }\n    \n    \n    // Loaner Functions\n    \n    function provideLoan(uint index) public payable{\n        \n        require(loanRequests[index].state == State.GUARANTEED,  \"Loan in invalid state\");   \n        require(msg.value >= loanRequests[index].amount,        \"Insufficient balance given\");\n        \n        \n        // Transfer Money\n        loanRequests[index].borrower.transfer(loanRequests[index].amount);\n        \n        // Update loan request\n        loanRequests[index].loaner = msg.sender;\n    }\n    \n    function getGuarantee(uint index) public {\n        \n        require(loanRequests[index].state == State.LOANED,  \"Loan in invalid state\");   \n        require(loanRequests[index].creationDate + loanRequests[index].expiryTime < now,    \"Loan has not expired yet\");\n        require(msg.sender == loanRequests[index].loaner,                                   \"Caller is not the loaner\");\n        \n        // Check if there is enough balance in the contract (should always be true)\n        assert(address(this).balance > loanRequests[index].amount);\n        \n        // Pay guarantee to Lender \n        loanRequests[index].loaner.transfer(loanRequests[index].amount);\n        \n        // Mark loan request as successfully paid\n        loanRequests[index].state = State.PAID;\n    }\n}\n",
  "sourcePath": "/Users/manwelbugeja/School/ict3009/assignments/ict3009-assignment-1/src/myproject/contracts/MyContract.sol",
  "compiler": {
    "name": "solc",
    "version": "0.6.6+commit.6c089d02.Emscripten.clang"
  },
  "schemaVersion": "3.3.4",
  "updatedAt": "2021-03-03T15:32:33.455Z",
  "devdoc": {
    "methods": {}
  },
  "userdoc": {
    "methods": {}
  }
}